:0400000053EF0AF0C0
:100800000001000A006400E80310274465636F6478
:1008100065206D65737361676500434F4D45434FB8
:100820005500414341424F550025630025640000B7
:10083000FEFFFFFFFEFFFEFEFEFFFFFEFEFFFEFFD0
:10084000FEFFFFFFFEFEFFFFFEFFFFFFFEFFFEFEBF
:10085000FEFFFFFEFEFFFEFFFEFEFEFEFEFEFEFEB4
:10086000FEFEFFFEFEFFFEFFFEFFFFFEFEFEFFFFA1
:10087000FEFEFEFEFEFEFEFEFEFEFFFEFEFFFEFF95
:10088000FEFFFFFFFEFEFFFFFEFEFEFEFEFEFEFE83
:10089000FEFEFFFEFEFFFEFFFEFFFFFEFEFFFEFE72
:1008A000FEFEFEFEFEFEFEFEFEFEFEFEFEFEFEFE68
:1008B000FFFFFFFFFFFFFFFFFFFFFFFFFFFFFFFF48
:1008C000212121B3B3B3B3B3B3B3B3B3212121B364
:1008D000B3B3212121FFFFFFFFFFFFFFFFFFFFFF5A
:1008E000FFFFFFFFFFFFFFFFFFFFFFFFFFFFFFFF18
:1008F000FFFFFFFFFFFFFFFFFFFFFFFFFFFFFFFF08
:10090000FFFFFFFFFFFFFFFFFFFFFFFFFFFFFFFFF7
:10091000FFFFFFFFFFFFFFFFFFFFFFFFFF21212181
:100920002121212121213F7C2121212121B3B3B388
:10093000B3B3B3212121FFFFFFFFFFFFFFFFFFFF45
:10094000FFFFFFFFFFFFFFFFFFFFFFFFFFFFFFFFB7
:10095000FFFFFFFFFFFFFFFFFFFFFFFFFFFFFFFFA7
:10096000FFFFFFFFFFFFFFFFFFFFFFFFFFFFFFFF97
:10097000FFFFFFFFFFFFFFFFFFFFFF2121212121DD
:10098000212121213F7C2121212121212121B3B3BA
:10099000B3B3B3B3FFFFFFFFFFFFFFFFFFFFFFFF97
:1009A000FFFFFFFFFFFFFFFFFFFFFFFFFFFFFFFF57
:1009B000FFFFFFFFFFFFFFFFFFFFFFFFFFFFFFFF47
:1009C000FFFFFFFFFFFFFFFFFFFFFFFFFFFFFFFF37
:1009D000FFFFFFFFFFFFFFFFFF2121212121212139
:1009E00021213F7C2121212121212121212121217E
:1009F0002121FFFFFFFFFFFFFFFFFFFFFFFFFFFFC3
:100A0000FFFFFFFFFFFFFFFFFFFFFFFFFFFFFFFFF6
:100A1000FFFFFFFFFFFFFFFFFFFFFFFFFFFFFFFFE6
:100A2000FFFFFFFFFFFFFFFFFFFFFFFFFFFFFFFFD6
:100A3000FFFFFFFFFFFFFF21212121212121212194
:100A40003F7C21212121212121212121212121211D
:100A5000FFFFFFFFFFFFFFFFFFFFFFFFFFFFFFFFA6
:100A6000FFFFFFFFFFFFFFFFFFFFFFFFFFFFFFFF96
:100A7000FFFFFFFFFFFFFFFFFFFFFFFFFFFFFFFF86
:100A8000FFFFFFFFFFFFFFFFFFFFFFFFFFFFFFFF76
:100A9000FFFF2121212121213F7C21212121213FF3
:100AA0003F3F3F7C21212121213F7C2121FFFFFF6E
:100AB000FFFFFFFFFFFFFFFFFFFFFFFFFFFFFFFF46
:100AC000FFFFFFFFFFFFFFFFFFFFFFFFFFFFFFFF36
:100AD000FFFFFFFFFFFFFFFFFFFFFFFFFFFFFFFF26
:100AE000FFFFFFFFFFFFFFFFFF2121212121212128
:100AF00021212121214F4F4F4F4F4F4F4F4F212148
:100B0000214F4F4F4F4F4F212121212121FFFFFF27
:100B1000FFFFFFFFFFFFFFFFFFFFFFFFFFFFFFFFE5
:100B2000FFFFFFFFFFFFFFFFFFFFFFFFFFFFFFFFD5
:100B3000FFFFFFFFFFFFFFFFFFFFFFFFFFFFFFFFC5
:100B4000FFFFFFFFFFFFFFFFFF2121212121213FA9
:100B50007C21216B6D6D6B6D6D6B6D6D2121216B3A
:100B60006D6D6B6D6D2121213F7C2121FFFFFFFF0A
:100B7000FFFFFFFFFFFFFFFFFFFFFFFFFFFFFFFF85
:100B8000FFFFFFFFFFFFFFFFFFFFFFFFFFFFFFFF75
:100B9000FFFFFFFFFFFFFFFFFFFFFFFFFFFFFFFF65
:100BA000FFFFFFFFFF2121212121212121216B6D49
:100BB0006D212121212121212121B3B3B321212123
:100BC0002121216B6D6D3F7C2121FFFFFFFFFFFF86
:100BD000FFFFFFFFFFFFFFFFFFFFFFFFFFFFFFFF25
:100BE000FFFFFFFFFFFFFFFFFFFFFFFFFFFFFFFF15
:100BF000FFFFFFFFFFFFFFFFFFFFFFFFFFFFFFFF05
:100C000021212121212121212121212121212121D4
:100C100021213F7C21212121212121212121216B01
:100C20006D6D212121212121FFFFFFFFFFFFFFFF2C
:100C3000FFFFFFFFFFFFFFFFFFFFFFFFFFFFFFFFC4
:100C4000FFFFFFFFFFFFFFFFFFFFFFFFFFFFFFFFB4
:100C5000FFFFFFFFFFFFFFFFFFFFFFFFFFFF212160
:100C6000212121212121214F4F4F4F4F4F6B6D6D7E
:100C70006B6D6D2121212121212121213F3F3F6BDE
:100C80006D6D212121212121FFFFFFFFFFFF212188
:100C900021212121212121FFFFFFFFFFFFFFFFFF76
:100CA000FFFFFFFFFFFFFFFFFFFFFFFFFFFFFFFF54
:100CB000FFFFFFFFFFFFFFFFFFFFFFFFFFFFFFFF44
:100CC000FFFFFFFFFFFFFF2121216B6D6D6B6D6D3E
:100CD0003F3F3F3F3F3F3F3F3F3F3F3F3F3F3F6BF8
:100CE0006D6D6B6D6DFFFFFFFFFFFF212121212146
:100CF000216B6D6D6B6D6DFFFFFFFFFFFFFFFFFF52
:100D0000FFFFFFFFFFFFFFFFFFFFFFFFFFFFFFFFF3
:100D1000FFFFFFFFFFFFFFFFFFFFFEFEFFFEFEFEE8
:100D2000FEFEFEFE21202020202020202120202049
:100D300020202120212120202120212021212020AC
:100D40002120212021FFFEFEFFFFFF2021216A6CD0
:100D50006D6A6D6C6B6D6CFEFFFEFFFEFFFFFEFEAD
:100D6000FFFFFFFEFFFFFEFEFFFEFFFEFFFFFEFE9A
:100D7000FFFEFFFEFFFFFEFEFFFFFEFEFFFE202048
:100D8000202020202120202020202020213E3E3E07
:100D9000B2B2B3B2B3B3B2B2B34E4F4E21212020A0
:100DA0002120212021212020FFFFFEFEFFFE6A6C72
:100DB0006C6A6C6C212020FEFEFEFEFEFFFEFEFE35
:100DC000FEFEFFFFFFFFFFFFFFFFFFFFFFFFFFFF35
:100DD000FFFFFFFFFFFFFFFFFFFFFF212121212179
:100DE000213F3F3F3F3F3F3F3F3F4F4F4F3F3F3F01
:100DF0004F4F4F4F4F4F4F4F4F4F4F4F4F4F4F4F03
:100E00004F4F3F3F3F3F7C21212121216B6D6D6B77
:100E10006D6DFFFFFFFFFFFFFFFFFFFFFFFFFFFF06
:100E2000FFFFFFFFFFFFFFFFFFFFFFFFFFFFFFFFD2
:100E3000FFFFFFFFFFFFFFFFFF2121213F3F3F3F5C
:100E40007C21212121214F4F4F3F3F3F4F4F4F4F9B
:100E50004F4F4F4F4F3F3F3F4F4F4F4F4F4F21212E
:100E6000212121212121212121216B6D6D6B6D6DAE
:100E7000FFFFFFFFFFFFFFFFFFFFFFFFFFFFFFFF82
:100E8000FFFFFFFFFFFFFFFFFFFFFFFFFFFFFFFF72
:100E9000FFFFFFFFFFFFFF2121214F4F4F4F4F4F1C
:100EA0004F4F4F21212121212121212121212121A8
:100EB00021212121212121212121212121214F4FC6
:100EC0004F4F4F4F2121214F4F4F212121212121D0
:100ED000FFFFFFFFFFFFFFFFFFFFFFFFFFFFFFFF22
:100EE000FFFFFFFFFFFFFFFFFFFFFFFFFFFFFFFF12
:100EF000FFFFFFFFFFFFFF2121214F4F4F4F4F4FBC
:100F00004F4F4F6B6D6D2121214F4F4F21212121DB
:100F100021212121212121212121212121216B6D2B
:100F20006D4F4F4F4F4F4F4F4F4F4F4F4FFFFFFFA3
:100F3000FFFFFFFFFFFFFFFFFFFFFFFFFFFFFFFFC1
:100F4000FFFFFFFFFFFFFFFFFFFFFFFFFFFFFFFFB1
:100F5000FFFFFFFF2121212121214F4F4F4F4F4FF5
:100F60004F4F4F6B6D6D2121214F4F4FFF2321219B
:100F7000212121212121212121212121216B6D6D7F
:100F80002121214F4F4F4F4F4F212121FFFFFFFFC5
:100F9000FFFFFFFFFFFFFFFFFFFFFFFFFFFFFFFF61
:100FA000FFFFFFFFFFFFFFFFFFFFFFFFFFFFFFFF51
:100FB000FFFFFF2121212121216B6D6D21212121A5
:100FC00021212121212121214F4F4F212121212187
:100FD0002121212121212121212121212100000064
:100FE0000000000000000000000000000000000001
:100FF00000000000000000000F0E146E000E156EC1
:101000008FD0250E1818D8B404D0185073EC0AF0FD
:1010100087D0000E126E0ED014C0D9FF15C0DAFFB3
:10102000DF50186E020E1426000E1522185073ECB5
:101030000AF076D00DC0F6FF0EC0F7FF0D4A0E2A5B
:101040000800F5CF18F01850000AD8B41200630A4F
:10105000D8B4E2D7070AD8B403D00D0AD8A4E6D78B
:1010600014C0D9FF15C0DAFFDECF16F0DDCF17F0C0
:10107000020E1426000E152217AE06D0030E121211
:10108000166C171ED8B0172A010E186E050E181808
:10109000D8B412D01850020D010EF324F66E080ECB
:1010A000F420F76E0900F550165C0900F55017584A
:1010B000D8A002D0182AEAD712C011F0030E1116D8
:1010C000D8B403D02D0E73EC0AF018C013F024D05E
:1010D0001350020D010EF324F66E080EF420F76E85
:1010E0000900F5CF03F00A00F5CF04F016C001F0B7
:1010F00017C002F0CEEC09F001C008F002C009F000
:10110000000E0B6E0A0E0A6EF7EC09F00850300F55
:10111000186E185073EC0AF013061328D8A4D8D709
:101120000DC0F6FF0EC0F7FF0D4A0E2A0800F5CFDE
:1011300018F01850D8B4120064D71BC01DF01CC0A2
:101140001EF0D8901D361E36D8901D361E36D8900B
:101150001D361E361DC026F01EC027F0000E2F6E55
:10116000000E2E6E000E2B6E000E256E000E246EED
:1011700019C001F01AC002F036EC0AF001C028F0E4
:1011800002C029F02C0E0D6E080E0E6E28C00FF056
:1011900029C010F0FCEC07F01A0E0D6E080E0E6E52
:1011A000FCEC07F038D02E501924D96E2F501A209D
:1011B000DA6EDF502A6E070E2E141D6E000E2F14ED
:1011C0001E6E1D501E10D8A40ED0290E0D6E080ED6
:1011D0000E6E2BC00FF0106AFCEC07F0244A252A93
:1011E000000E2B6E02D0D8902B362A50010B2B12FA
:1011F0002E4A2F2A290E0D6E080E0E6E1F0E2C245D
:10120000D96E000E2D20DA6EDF501D6E1D500F6E50
:10121000106AFCEC07F02E50265C2750800A1D6EE9
:101220002F50800A1D58D8B0BED7000E2D6E000E6C
:101230002C6E02D02C4A2D2A1B502C5C2D50800A7B
:101240001D6E1C50800A1D58D8A0F4D7220E0D6EBA
:10125000080E0E6EFCEC07F01200000E0A6E08AECF
:101260000AD0081E071E061E056C000E0622072265
:101270000822010E0A6E04AE0AD0041E031E021ECE
:10128000016C000E022203220422010E0A1A000E33
:101290000B6E000E0C6E000E0D6E000E0E6E0550E5
:1012A000061007100810D8B42AD0010E096E06D017
:1012B000D8900536063607360836092A08AEF8D71C
:1012C000D8900B360C360D360E360550015C0650A4
:1012D00002580750035808500458D8A009D00550A8
:1012E000015E0650025A0750035A0850045A0B80F8
:1012F000D8900832073206320532092EE1D70A505B
:10130000D8B408D00E1E0D1E0C1E0B6C000E0C2245
:101310000D220E220BC001F00CC002F00DC003F034
:101320000EC004F012000FC005F010C006F011C08E
:1013300007F012C008F0000E016E120E026E7A0E57
:10134000036E000E046E2DEC09F001C013F002C014
:1013500014F003C015F004C016F013C001F014C05F
:1013600002F015C003F016C004F0400E056E000E2A
:10137000066E000E076E000E086E2DEC09F0FF0ED3
:101380000124176EFF0E0220186E17C0AFFFAC9835
:10139000AB8E948E948CAB88AC8A1200000E066ED5
:1013A000000E056E03500410D8B41CD0010E076E59
:1013B00004D0D89003360436072A04AEFAD7D89062
:1013C000053606360350015C04500258D8A005D0FB
:1013D0000350015E0450025A0580D8900432033253
:1013E000072EEDD705C001F006C002F012000A502A
:1013F0000B10D8B418D0010E0C6E04D0D8900A3659
:101400000B360C2A0BAEFAD70A50085C0B50095861
:10141000D8A004D00A50085E0B50095AD8900B325D
:101420000A320C2EF1D708C008F009C009F01200EA
:10143000800E0F6E250E106E000E116E000E126ED5
:1014400093EC09F00B0E0D6E080E0E6EFCEC07F01F
:10145000380E196E000E1A6E000E1C6E050E1B6EF5
:101460009DEC08F06AEC0AF000EF00F001C005F016
:1014700002C006F002D0054A062A05C0D9FF06C000
:10148000DAFFDF50D8A4F7D701C003F002C004F0A0
:10149000031E041E034A042A05500324016E06504D
:1014A0000420026E1200300EF66E080EF76E000E6B
:1014B000F86E00EE38F017EEC8F00900F5CFEEFF39
:1014C000E550E150FAE1E250F8E1000EF86E00015B
:1014D00018EF0AF0000EAF6EAC98AB9E949E949CF1
:1014E000AB98AC9A1200016E9EA8FED701C0ADFF6A
:0214F0001200E8
:020000040020DA
:08000000FFFFFFFFFFFFFFFF00
:020000040030CA
:0E000000000C1F1EFF0185FF0FC00FE00F4018
:00000001FF
