:04000000CEEF37F018
:106F9000016E9EA8FED701C0ADFF1200336A000E3D
:106FA000F86E000111EF38F0000E106E000E116E39
:106FB000900E126E6F0E136E0E0E0E6E000E0F6E92
:106FC000100E026E000E036E0CC004F00DC005F032
:106FD0000E0E066E000E076E54EC39F012000CC057
:106FE00012F00DC013F0000E146E000E156E100E90
:106FF000106E000E116E120E026E000E036E0EC0A9
:1070000004F00FC005F0100E066E000E076E54EC73
:1070100039F012C0F6FF13C0F7FF000EF56E0C003A
:107020001200800E0F6E250E106E000E116E000EF7
:10703000126E3FEC38F0EB0E0C6E7F0E0D6ED4EC42
:1070400037F0B90E2F6E730E306EF30E316E7F0E69
:10705000326E2FC016F030C017F0000E196E050EFC
:10706000186E31C01AF032C01BF0E0EC38F0BA0EE6
:107070000C6E7F0E0D6ED4EC37F000EF00F00FC0F9
:1070800005F010C006F011C007F012C008F0000EA5
:10709000016E120E026E7A0E036E000E046E7AEC12
:1070A00038F001C013F002C014F003C015F004C0A2
:1070B00016F013C001F014C002F015C003F016C0A2
:1070C00004F0400E056E000E066E000E076E000EF8
:1070D000086E7AEC38F0FF0E0124176EFF0E0220C6
:1070E000186E17C0AFFFAC98AB8E948E948CAB88A3
:1070F000AC8A1200000E0A6E08AE0AD0081E071EE7
:10710000061E056C000E062207220822010E0A6EDA
:1071100004AE0AD0041E031E021E016C000E0222E1
:1071200003220422010E0A1A000E0B6E000E0C6ED2
:10713000000E0D6E000E0E6E0550061007100810A2
:10714000D8B42AD0010E096E06D0D890053606367E
:1071500007360836092A08AEF8D7D8900B360C3611
:107160000D360E360550015C065002580750035884
:1071700008500458D8A009D00550015E0650025AA4
:107180000750035A0850045A0B80D890083207322F
:1071900006320532092EE1D70A50D8B408D00E1EA7
:1071A0000D1E0C1E0B6C000E0C220D220E220BC0AD
:1071B00001F00CC002F00DC003F00EC004F012008C
:1071C000000E216E000E206E000E236E000E226E49
:1071D000000E286E000E276E000E1F6E010E1E6E32
:1071E000D80E0C6E7F0E0D6ED4EC37F0000E256EAF
:1071F000000E246E48D016C029F022501A241C6EAE
:1072000023501B201D6E1CC0F6FF1DC0F7FF080099
:10721000F5CF26F0275000081C6E070E1C261C28F0
:107220001D6E02D0D89026321D2EFCD7274A282A60
:107230002050185C1950800A1C6E2150800A1C587E
:10724000D8A015D0204A212A26A004D029B004D0E5
:10725000292A02D029B02906080E27182810D8A4F8
:1072600006D0224A232A000E286E000E276EFC0E3E
:107270000C6E7F0E0D6E290E0E6E000E0F6EEFEC73
:1072800037F0244A252A1E50245C2550800A1C6EA3
:107290001F50800A1C58D8A0AED7E20E0C6E7F0E8D
:1072A0000D6ED4EC37F0120068D0250E0B18D8B450
:1072B00015D020EE02F00250D9260350DA22DE501B
:1072C000DE10D8B42BD020EE02F00250D9260350A5
:1072D000DA2201D852D00500FA6E17D0000E0A6EDD
:1072E00030D020EE02F00250D9260350DA22DE50D0
:1072F000DE10D8B413D020EE02F00250D92603508D
:10730000DA2201D83AD00500FA6EDE50FD6EDE506A
:10731000FE6EF850FF6EFA500B50120002C0D9FFFB
:1073200003C0DAFFDECFF6FFDDCFF7FF0BC0F5FFBE
:107330000C0002C0D9FF03C0DAFFDE2A000EDD22F6
:107340001CD00450086E0550096E044A052A08C076
:10735000F6FF09C0F7FFF86A070EF76403D00800CC
:10736000F55005D0F6CFE9FFF7CFEAFFEF500B6EEF
:107370000B50000AD8B41BD0B4D70450086E055087
:10738000096E044A052A08C0F6FF09C0F7FFF86A2B
:10739000070EF76403D00800F55005D0F6CFE9FFDB
:1073A000F7CFEAFFEF500B6E0B50D8A47ED7000E3C
:1073B000036E000E026E120000FFFFFFFFFFFFFFD3
:1073C000FFFFFFFFFFFFFFFFFFFFFFFFFFFFFFFFCD
:1073D000FFFFFFFFFFFFFFFFFFFFFFFFFFFFFFFFBD
:1073E000FFFFFFFFFFFFFFFFFFFFFFFFFFFFFFFFAD
:1073F000FFFFFFFFFFFFFFFFFFFFFFFFFFFFFFFF9D
:10740000FFFFFFFFFFFFFFFFFFFFFFFFFFFFFFFF8C
:10741000FFFFFFFFFFFFFFFFFFFFFFFFFFFFFFFF7C
:10742000FFFFFFFFFFFFFFFFFFFFFFFFFFFFFFFF6C
:10743000FFFFFFFFFFFFFFFFFFFFFFFFFFFFFFFF5C
:10744000FFFFFFFFFFFFFFFFFF202020B2B2B3B21C
:10745000B2B3B2B2B3202020B2B2B3202020FFFFDB
:10746000FFFFFFFFFFFFFFFFFFFFFFFFFFFFFFFF2C
:10747000FFFFFFFFFFFFFFFFFFFFFFFFFFFFFFFF1C
:10748000FFFFFFFFFFFFFFFFFFFFFFFFFFFFFFFF0C
:10749000FFFFFFFFFFFFFFFFFFFFFFFFFFFFFFFFFC
:1074A000FFFFFFFFFFFF2020202020202020203F83
:1074B0003F3F202020202020B2B2B3B2B2B3202020
:1074C00020FFFFFFFFFFFFFFFFFFFFFFFFFFFFFFAB
:1074D000FFFFFFFFFFFFFFFFFFFFFFFFFFFFFFFFBC
:1074E000FFFFFFFFFFFFFFFFFFFFFFFFFFFFFFFFAC
:1074F000FFFFFFFFFFFFFFFFFFFFFFFFFFFFFFFF9C
:10750000FFFFFFFFFFFF2020202020202020203F22
:107510003F3F202020202020202020B2B2B3B2B252
:10752000B3FFFFFFFFFFFFFFFFFFFFFFFFFFFFFFB7
:10753000FFFFFFFFFFFFFFFFFFFFFFFFFFFFFFFF5B
:10754000FFFFFFFFFFFFFFFFFFFFFFFFFFFFFFFF4B
:10755000FFFFFFFFFFFFFFFFFFFFFFFFFFFFFFFF3B
:10756000FFFFFFFFFFFF2020202020202020203FC2
:107570003F3F2020202020202020202020202020CD
:1075800020FFFFFFFFFFFFFFFFFFFFFFFFFFFFFFEA
:10759000FFFFFFFFFFFFFFFFFFFFFFFFFFFFFFFFFB
:1075A000FFFFFFFFFFFFFFFFFFFFFFFFFFFFFFFFEB
:1075B000FFFFFFFFFFFFFFFFFFFFFFFFFFFFFFFFDB
:1075C000FFFFFFFFFFFF2020202020202020203F62
:1075D0003F3F20202020202020202020202020206D
:1075E00020FFFFFFFFFFFFFFFFFFFFFFFFFFFFFF8A
:1075F000FFFFFFFFFFFFFFFFFFFFFFFFFFFFFFFF9B
:10760000FFFFFFFFFFFFFFFFFFFFFFFFFFFFFFFF8A
:10761000FFFFFFFFFFFFFFFFFFFFFFFFFFFFFFFF7A
:10762000FFFFFF2020202020203F3F3F2020202060
:1076300020203F3F3F3F3F3F2020202020203F3F52
:107640003F202020FFFFFFFFFFFFFFFFFFFFFFFFA7
:10765000FFFFFFFFFFFFFFFFFFFFFFFFFFFFFFFF3A
:10766000FFFFFFFFFFFFFFFFFFFFFFFFFFFFFFFF2A
:10767000FFFFFFFFFFFFFFFFFFFFFFFFFFFFFFFF1A
:107680002020202020202020202020204F4F4F4F3E
:107690004F4F4F4F4F2020204F4F4F4F4F4F2020E5
:1076A00020202020FFFFFFFFFFFFFFFFFFFFFFFF66
:1076B000FFFFFFFFFFFFFFFFFFFFFFFFFFFFFFFFDA
:1076C000FFFFFFFFFFFFFFFFFFFFFFFFFFFFFFFFCA
:1076D000FFFFFFFFFFFFFFFFFFFFFFFFFFFFFFFFBA
:1076E0002020202020203F3F3F2020206A6C6C6A11
:1076F0006C6C6A6C6C2020206A6C6C6A6C6C20204C
:10770000203F3F3F202020FFFFFFFFFFFFFFFFFF45
:10771000FFFFFFFFFFFFFFFFFFFFFFFFFFFFFFFF79
:10772000FFFFFFFFFFFFFFFFFFFFFFFFFFFFFFFF69
:10773000FFFFFFFFFFFFFFFFFFFFFFFFFFFFFFFF59
:107740002020202020202020206A6C6C2020202057
:107750002020202020B2B2B32020202020206A6CDC
:107760006C3F3F3F202020FFFFFFFFFFFFFFFFFF99
:10777000FFFFFFFFFFFFFFFFFFFFFFFFFFFFFFFF19
:10778000FFFFFFFFFFFFFFFFFFFFFFFFFFFFFFFF09
:10779000FFFFFFFFFFFFFFFFFFFFFFFFFF20202096
:1077A0002020202020202020202020202020203FBA
:1077B0003F3F2020202020202020202020206A6CF5
:1077C0006C202020202020FFFFFFFFFFFFFFFFFF96
:1077D000FFFFFFFFFFFFFFFFFFFFFFFFFFFFFFFFB9
:1077E000FFFFFFFFFFFFFFFFFFFFFFFFFFFFFFFFA9
:1077F000FFFFFFFFFFFFFFFFFFFFFFFFFF20202036
:107800002020202020204F4F4F4F4F4F6A6C6C6A32
:107810006C6C2020202020202020203F3F3F6A6CDD
:107820006C202020202020FFFFFFFFFFFF202020D2
:10783000202020202020FFFFFFFFFFFFFFFFFFFF92
:10784000FFFFFFFFFFFFFFFFFFFFFFFFFFFFFFFF48
:10785000FFFFFFFFFFFFFFFFFFFFFFFFFFFFFFFF38
:10786000FFFFFFFFFFFF2020206A6C6C6A6C6C3FFB
:107870003F3F3F3F3F3F3F3F3F3F3F3F3F3F6A6CC0
:107880006C6A6C6CFFFFFFFFFFFF20202020202090
:107890006A6C6C6A6C6CFFFFFFFFFFFFFFFFFFFF6E
:1078A000FFFFFFFFFFFFFFFFFFFFFFFFFFFFFFFFE8
:1078B000FFFFFFFFFFFFFFFFFFFFFFFFFFFFFFFFD8
:1078C000FFFFFF202020202020202020202020201B
:1078D00020202020202020202020202020202020A8
:1078E00020202020FFFFFFFFFFFF2020206A6C6C7C
:1078F0006A6C6C6A6C6CFFFFFFFFFFFFFFFFFFFF0E
:10790000FFFFFFFFFFFFFFFFFFFFFFFFFFFFFFFF87
:10791000FFFFFFFFFFFFFFFFFFFFFFFFFF20202014
:107920002020202020202020202020203F3F3FB268
:10793000B2B3B2B2B3B2B2B34F4F4F202020202027
:1079400020202020202020FFFFFFFFFFFF6A6C6C1B
:107950006A6C6C202020FFFFFFFFFFFFFFFFFFFF8F
:10796000FFFFFFFFFFFFFFFFFFFFFFFFFFFFFFFF27
:10797000FFFFFFFFFFFFFFFFFFFF20202020202051
:107980003F3F3F3F3F3F3F3F3F4F4F4F3F3F3F4FC7
:107990004F4F4F4F4F4F4F4F4F4F4F4F4F4F4F4FF7
:1079A0004F3F3F3F3F3F3F2020202020206A6C6C0C
:1079B0006A6C6CFFFFFFFFFFFFFFFFFFFFFFFFFF92
:1079C000FFFFFFFFFFFFFFFFFFFFFFFFFFFFFFFFC7
:1079D000FFFFFFFFFFFFFFFFFFFF2020203F3F3F94
:1079E0003F3F3F2020202020204F4F4F3F3F3F4F21
:1079F0004F4F4F4F4F4F4F4F3F3F3F4F4F4F4F4FC7
:107A00004F2020202020202020202020206A6C6C65
:107A10006A6C6CFFFFFFFFFFFFFFFFFFFFFFFFFF31
:107A2000FFFFFFFFFFFFFFFFFFFFFFFFFFFFFFFF66
:107A3000FFFFFFFFFFFFFFFFFFFF2020204F4F4F03
:107A40004F4F4F4F4F4F202020202020202020201C
:107A50002020202020202020202020202020202026
:107A6000204F4F4F4F4F4F2020204F4F4F2020206F
:107A7000202020FFFFFFFFFFFFFFFFFFFFFFFFFFB3
:107A8000FFFFFFFFFFFFFFFFFFFFFFFFFFFFFFFF06
:107A9000FFFFFFFFFFFFFFFFFFFF2020204F4F4FA3
:107AA0004F4F4F4F4F4F6A6C6C2020204F4F4F204D
:107AB00020202020202020202020202020202020C6
:107AC000206A6C6C4F4F4F4F4F4F4F4F4F4F4F4FA0
:107AD000FFFFFFFFFFFFFFFFFFFFFFFFFFFFFFFFB6
:107AE000FFFFFFFFFFFFFFFFFFFFFFFFFFFFFFFFA6
:107AF000FFFFFFFFFFFFFF2020202020204F4F4FE0
:107B00004F4F4F4F4F4F6A6C6C2020204F4F4FFF0D
:107B1000231D202020202020202020202020202065
:107B2000206A6C6C2020204F4F4F4F4F4F20202059
:107B3000FFFFFFFFFFFFFFFFFFFFFFFFFFFFFFFF55
:107B4000FFFFFFFFFFFFFFFFFFFFFFFFFFFFFFFF45
:107B5000FFFFFFFFFFFFFF2020202020206A6C6C2A
:107B60002020202020202020202020204F4F4F2088
:107B70002020202020202020202020202020202005
:107B800020202020202020202020202020FFFFFF58
:107B9000FFFFFFFFFFFFFFFFFFFFFFFFFFFFFFFFF5
:107BA000FFFFFFFFFFFFFFFFFFFFFFFFFFFFFFFFE5
:107BB000FFFFFFFFFFFFFF2020202020206A6C6CCA
:107BC0006A6C6C2020202020202020202020204FA4
:107BD0004F4F4F4F4F4F4F4F4F4F4F2020202020A0
:107BE00020202020202020202020202020FFFFFFF8
:107BF000FFFFFFFFFFFFFFFFFFFFFFFFFFFFFFFF95
:107C0000FFFFFFFFFFFFFFFFFFFFFFFFFFFFFFFF84
:107C1000FFFFFFFFFFFFFF2020202020206A6C6C69
:107C2000202020202020202020B2B2B3FF231D20BE
:107C300020204F4F4F4F4F4F2020206BD7204F4FCA
:107C40004F202020202020202020202020FFFFFF68
:107C5000FFFFFFFFFFFFFFFFFFFFFFFFFFFFFFFF34
:107C6000FFFFFFFFFFFFFFFFFFFFFFFFFFFFFFFF24
:107C7000FFFFC7C6FFC7C6FFFFFF2020206A6C6C4E
:107C80002020202020206A6C6C2020202020202012
:107C900020202020202020202020202020202020E4
:107CA00020202020202020202020202020FFFFFF37
:107CB000FFFFFFFFFFFFFFFFFFFFFFFFFFFFFFFFD4
:107CC000FFFFFFFFFFFFFFFFFFFFFFFFFFFFFFFFC4
:107CD000FFFF231DFF231DFF231D2020206A6C6C46
:107CE0002020202020206A6C6C2020202020204F83
:107CF0004F4F4F4F4F4F4F4F20202020202020200C
:107D000020202020202020202020202020FFFFFFD6
:107D1000FFFFFFFFFFFFFFFFFFFFFFFFFFFFFFFF73
:107D2000FFFFFFFFFFFFFFFFFFFFFFFFC7C6FF23B0
:107D30001DFF231DFF231D20202020202020202088
:107D40002020202020206A6C6C2020204F4F4F20C4
:107D500020202020202020204F4F4F202020202096
:107D6000206A6C6C20202020202020202020202031
:107D7000FFFFFFFFFFFFFFFFFFFFFFFFFFFFFFFF13
:107D8000FFFFFFFFFFFFC7C6FF231DFFFFFFFF230E
:107D90001DFFFFFF20202020202020202020202049
:107DA0002020202020202020202020204F4F4F2046
:107DB00020202020202020202020202020202020C3
:107DC000206A6C6C202020202020202020202020D1
:107DD000FFFFFFFFFFFFFFFFFFFFFFFFFFFFFFFFB3
:107DE000FFFFFFC7C6FF231DFFFFFFFF231DFFC7C8
:107DF000C6FFFFFF20202020202020202020202040
:107E00002020202020202020202020202020204F43
:107E10004F4F2020204F4F4F202020202020202077
:107E20002020202020202020202020202020202052
:107E3000FFFFFFFFFFFFFFFFFFFFFFFFFFFFFFFF52
:107E4000C7C6FFFFFFFF231DFFC7C6FFFFFFFFFFE2
:107E5000FF20202020202020202020202020202043
:107E60002020206A6C6C2020202020202020204F01
:107E70004F4F2020204F4F4F2020204F4F4F20208A
:107E800020202020202020202020202020202020F2
:107E9000FFFFFFFFFFFFFFFFFFFFFFFFFFC7C6FF63
:107EA000231DFF231DFFC7C6FFFFFFFFFFFFFFFFCF
:107EB000FF202020202020202020202020202020E3
:107EC0002020206A6C6C4F4F4F4F4F4F2020204F87
:107ED0004F4F2020204F4F4F2020202020204F4F59
:107EE0004F4F4F4F202020202020202020202020D6
:107EF000FFFFFFFFFFFFFFFFFFFFFFFFFF231DFF50
:107F0000231DFFFFFFFFFFFFFFFFFFFFFFFFFFFF3F
:107F1000FF202020202020202020FFFFFFFFFFFF48
:107F20002020202020202020202020202020202051
:107F30002020202020202020202020202020202041
:107F400020202020202020FFFFFFFFFFFFFFFFFF5A
:107F5000FFFFFFFFFFFFFFFFFFFFFFFFFFFFFFFF31
:107F6000FFFFFFFFFFFFFFFFFFFFFFFFFFFFFFFF21
:107F7000FFFFFFFFFFFFFFFFFFFFFFFFFFFFFFFF11
:107F8000FFFFFFFFFFFFFFFFFFFFFFFFFFFFFFFF01
:107F9000FFFFFFFFFFFFFFFFFFFFFFFFFFFFFFFFF1
:107FA000FFFFFFFFFFFFFFFFFFFFFFFFFFFFFFFFE1
:107FB000FFFFFFFFFFFFFFFFFF00456E636F646978
:107FC0006E672050726F6365737320436F6D706CC2
:107FD000657465202020200020434F4D45434F55B8
:107FE000200020414341424F552000537461727478
:107FF0002E0A007465737465002564002573000003
:020000040020DA
:08000000FFFFFFFFFFFFFFFF00
:020000040030CA
:0E000000000C1F1EFF0185FF0FC00FE00F4018
:00000001FF
